{
  "_format": "hh-sol-artifact-1",
  "contractName": "AshPunksNFT",
  "sourceName": "contracts/AshPunksNFT.sol",
  "abi": [
    {
      "inputs": [],
      "stateMutability": "payable",
      "type": "constructor"
    },
    {
      "anonymous": false,
      "inputs": [
        {
          "indexed": true,
          "internalType": "address",
          "name": "owner",
          "type": "address"
        },
        {
          "indexed": true,
          "internalType": "address",
          "name": "approved",
          "type": "address"
        },
        {
          "indexed": true,
          "internalType": "uint256",
          "name": "tokenId",
          "type": "uint256"
        }
      ],
      "name": "Approval",
      "type": "event"
    },
    {
      "anonymous": false,
      "inputs": [
        {
          "indexed": true,
          "internalType": "address",
          "name": "owner",
          "type": "address"
        },
        {
          "indexed": true,
          "internalType": "address",
          "name": "operator",
          "type": "address"
        },
        {
          "indexed": false,
          "internalType": "bool",
          "name": "approved",
          "type": "bool"
        }
      ],
      "name": "ApprovalForAll",
      "type": "event"
    },
    {
      "anonymous": false,
      "inputs": [
        {
          "indexed": true,
          "internalType": "address",
          "name": "previousOwner",
          "type": "address"
        },
        {
          "indexed": true,
          "internalType": "address",
          "name": "newOwner",
          "type": "address"
        }
      ],
      "name": "OwnershipTransferred",
      "type": "event"
    },
    {
      "anonymous": false,
      "inputs": [
        {
          "indexed": true,
          "internalType": "address",
          "name": "from",
          "type": "address"
        },
        {
          "indexed": true,
          "internalType": "address",
          "name": "to",
          "type": "address"
        },
        {
          "indexed": true,
          "internalType": "uint256",
          "name": "tokenId",
          "type": "uint256"
        }
      ],
      "name": "Transfer",
      "type": "event"
    },
    {
      "inputs": [
        {
          "internalType": "address",
          "name": "to",
          "type": "address"
        },
        {
          "internalType": "uint256",
          "name": "tokenId",
          "type": "uint256"
        }
      ],
      "name": "approve",
      "outputs": [],
      "stateMutability": "nonpayable",
      "type": "function"
    },
    {
      "inputs": [
        {
          "internalType": "address",
          "name": "owner",
          "type": "address"
        }
      ],
      "name": "balanceOf",
      "outputs": [
        {
          "internalType": "uint256",
          "name": "",
          "type": "uint256"
        }
      ],
      "stateMutability": "view",
      "type": "function"
    },
    {
      "inputs": [
        {
          "internalType": "uint256",
          "name": "tokenId",
          "type": "uint256"
        }
      ],
      "name": "getApproved",
      "outputs": [
        {
          "internalType": "address",
          "name": "",
          "type": "address"
        }
      ],
      "stateMutability": "view",
      "type": "function"
    },
    {
      "inputs": [
        {
          "internalType": "address",
          "name": "owner",
          "type": "address"
        },
        {
          "internalType": "address",
          "name": "operator",
          "type": "address"
        }
      ],
      "name": "isApprovedForAll",
      "outputs": [
        {
          "internalType": "bool",
          "name": "",
          "type": "bool"
        }
      ],
      "stateMutability": "view",
      "type": "function"
    },
    {
      "inputs": [],
      "name": "isPublicMintEnabled",
      "outputs": [
        {
          "internalType": "bool",
          "name": "",
          "type": "bool"
        }
      ],
      "stateMutability": "view",
      "type": "function"
    },
    {
      "inputs": [],
      "name": "maxPerWallet",
      "outputs": [
        {
          "internalType": "uint256",
          "name": "",
          "type": "uint256"
        }
      ],
      "stateMutability": "view",
      "type": "function"
    },
    {
      "inputs": [],
      "name": "maxSupply",
      "outputs": [
        {
          "internalType": "uint256",
          "name": "",
          "type": "uint256"
        }
      ],
      "stateMutability": "view",
      "type": "function"
    },
    {
      "inputs": [
        {
          "internalType": "uint256",
          "name": "_quantity",
          "type": "uint256"
        }
      ],
      "name": "mint",
      "outputs": [],
      "stateMutability": "payable",
      "type": "function"
    },
    {
      "inputs": [],
      "name": "mintPrice",
      "outputs": [
        {
          "internalType": "uint256",
          "name": "",
          "type": "uint256"
        }
      ],
      "stateMutability": "view",
      "type": "function"
    },
    {
      "inputs": [],
      "name": "name",
      "outputs": [
        {
          "internalType": "string",
          "name": "",
          "type": "string"
        }
      ],
      "stateMutability": "view",
      "type": "function"
    },
    {
      "inputs": [],
      "name": "owner",
      "outputs": [
        {
          "internalType": "address",
          "name": "",
          "type": "address"
        }
      ],
      "stateMutability": "view",
      "type": "function"
    },
    {
      "inputs": [
        {
          "internalType": "uint256",
          "name": "tokenId",
          "type": "uint256"
        }
      ],
      "name": "ownerOf",
      "outputs": [
        {
          "internalType": "address",
          "name": "",
          "type": "address"
        }
      ],
      "stateMutability": "view",
      "type": "function"
    },
    {
      "inputs": [],
      "name": "renounceOwnership",
      "outputs": [],
      "stateMutability": "nonpayable",
      "type": "function"
    },
    {
      "inputs": [
        {
          "internalType": "address",
          "name": "from",
          "type": "address"
        },
        {
          "internalType": "address",
          "name": "to",
          "type": "address"
        },
        {
          "internalType": "uint256",
          "name": "tokenId",
          "type": "uint256"
        }
      ],
      "name": "safeTransferFrom",
      "outputs": [],
      "stateMutability": "nonpayable",
      "type": "function"
    },
    {
      "inputs": [
        {
          "internalType": "address",
          "name": "from",
          "type": "address"
        },
        {
          "internalType": "address",
          "name": "to",
          "type": "address"
        },
        {
          "internalType": "uint256",
          "name": "tokenId",
          "type": "uint256"
        },
        {
          "internalType": "bytes",
          "name": "data",
          "type": "bytes"
        }
      ],
      "name": "safeTransferFrom",
      "outputs": [],
      "stateMutability": "nonpayable",
      "type": "function"
    },
    {
      "inputs": [
        {
          "internalType": "address",
          "name": "operator",
          "type": "address"
        },
        {
          "internalType": "bool",
          "name": "approved",
          "type": "bool"
        }
      ],
      "name": "setApprovalForAll",
      "outputs": [],
      "stateMutability": "nonpayable",
      "type": "function"
    },
    {
      "inputs": [
        {
          "internalType": "string",
          "name": "_baseTokenUri",
          "type": "string"
        }
      ],
      "name": "setBaseTokenUri",
      "outputs": [],
      "stateMutability": "nonpayable",
      "type": "function"
    },
    {
      "inputs": [
        {
          "internalType": "bool",
          "name": "_isPublicMintEnabled",
          "type": "bool"
        }
      ],
      "name": "setPublicMintEnabled",
      "outputs": [],
      "stateMutability": "nonpayable",
      "type": "function"
    },
    {
      "inputs": [
        {
          "internalType": "bytes4",
          "name": "interfaceId",
          "type": "bytes4"
        }
      ],
      "name": "supportsInterface",
      "outputs": [
        {
          "internalType": "bool",
          "name": "",
          "type": "bool"
        }
      ],
      "stateMutability": "view",
      "type": "function"
    },
    {
      "inputs": [],
      "name": "symbol",
      "outputs": [
        {
          "internalType": "string",
          "name": "",
          "type": "string"
        }
      ],
      "stateMutability": "view",
      "type": "function"
    },
    {
      "inputs": [
        {
          "internalType": "uint256",
          "name": "tokenId_",
          "type": "uint256"
        }
      ],
      "name": "tokenURI",
      "outputs": [
        {
          "internalType": "string",
          "name": "",
          "type": "string"
        }
      ],
      "stateMutability": "view",
      "type": "function"
    },
    {
      "inputs": [],
      "name": "totalSupply",
      "outputs": [
        {
          "internalType": "uint256",
          "name": "",
          "type": "uint256"
        }
      ],
      "stateMutability": "view",
      "type": "function"
    },
    {
      "inputs": [
        {
          "internalType": "address",
          "name": "from",
          "type": "address"
        },
        {
          "internalType": "address",
          "name": "to",
          "type": "address"
        },
        {
          "internalType": "uint256",
          "name": "tokenId",
          "type": "uint256"
        }
      ],
      "name": "transferFrom",
      "outputs": [],
      "stateMutability": "nonpayable",
      "type": "function"
    },
    {
      "inputs": [
        {
          "internalType": "address",
          "name": "newOwner",
          "type": "address"
        }
      ],
      "name": "transferOwnership",
      "outputs": [],
      "stateMutability": "nonpayable",
      "type": "function"
    },
    {
      "inputs": [
        {
          "internalType": "address",
          "name": "",
          "type": "address"
        }
      ],
      "name": "walletMints",
      "outputs": [
        {
          "internalType": "uint256",
          "name": "",
          "type": "uint256"
        }
      ],
      "stateMutability": "view",
      "type": "function"
    },
    {
      "inputs": [],
      "name": "withdraw",
      "outputs": [],
      "stateMutability": "nonpayable",
      "type": "function"
    },
    {
      "inputs": [],
      "name": "withdrawWallet",
      "outputs": [
        {
          "internalType": "address payable",
          "name": "",
          "type": "address"
        }
      ],
      "stateMutability": "view",
      "type": "function"
    }
  ],
  "bytecode": "0x60806040526040518060400160405280600881526020017f41736850756e6b730000000000000000000000000000000000000000000000008152506040518060400160405280600281526020017f41500000000000000000000000000000000000000000000000000000000000008152508160009081620000819190620005ce565b508060019081620000939190620005ce565b505050620000b6620000aa6200013560201b60201c565b6200013d60201b60201c565b66470de4df82000060078190555060006008819055506103e86009819055506003600a8190555033600d60006101000a81548173ffffffffffffffffffffffffffffffffffffffff021916908373ffffffffffffffffffffffffffffffffffffffff1602179055506200012f336200020360201b60201c565b620007d0565b600033905090565b6000600660009054906101000a900473ffffffffffffffffffffffffffffffffffffffff16905081600660006101000a81548173ffffffffffffffffffffffffffffffffffffffff021916908373ffffffffffffffffffffffffffffffffffffffff1602179055508173ffffffffffffffffffffffffffffffffffffffff168173ffffffffffffffffffffffffffffffffffffffff167f8be0079c531659141344cd1fd0a4f28419497f9722a3daafe3b4186f6b6457e060405160405180910390a35050565b620002136200029960201b60201c565b600073ffffffffffffffffffffffffffffffffffffffff168173ffffffffffffffffffffffffffffffffffffffff160362000285576040517f08c379a00000000000000000000000000000000000000000000000000000000081526004016200027c906200073c565b60405180910390fd5b62000296816200013d60201b60201c565b50565b620002a96200013560201b60201c565b73ffffffffffffffffffffffffffffffffffffffff16620002cf6200032a60201b60201c565b73ffffffffffffffffffffffffffffffffffffffff161462000328576040517f08c379a00000000000000000000000000000000000000000000000000000000081526004016200031f90620007ae565b60405180910390fd5b565b6000600660009054906101000a900473ffffffffffffffffffffffffffffffffffffffff16905090565b600081519050919050565b7f4e487b7100000000000000000000000000000000000000000000000000000000600052604160045260246000fd5b7f4e487b7100000000000000000000000000000000000000000000000000000000600052602260045260246000fd5b60006002820490506001821680620003d657607f821691505b602082108103620003ec57620003eb6200038e565b5b50919050565b60008190508160005260206000209050919050565b60006020601f8301049050919050565b600082821b905092915050565b600060088302620004567fffffffffffffffffffffffffffffffffffffffffffffffffffffffffffffffff8262000417565b62000462868362000417565b95508019841693508086168417925050509392505050565b6000819050919050565b6000819050919050565b6000620004af620004a9620004a3846200047a565b62000484565b6200047a565b9050919050565b6000819050919050565b620004cb836200048e565b620004e3620004da82620004b6565b84845462000424565b825550505050565b600090565b620004fa620004eb565b62000507818484620004c0565b505050565b5b818110156200052f5762000523600082620004f0565b6001810190506200050d565b5050565b601f8211156200057e576200054881620003f2565b620005538462000407565b8101602085101562000563578190505b6200057b620005728562000407565b8301826200050c565b50505b505050565b600082821c905092915050565b6000620005a36000198460080262000583565b1980831691505092915050565b6000620005be838362000590565b9150826002028217905092915050565b620005d98262000354565b67ffffffffffffffff811115620005f557620005f46200035f565b5b620006018254620003bd565b6200060e82828562000533565b600060209050601f83116001811462000646576000841562000631578287015190505b6200063d8582620005b0565b865550620006ad565b601f1984166200065686620003f2565b60005b82811015620006805784890151825560018201915060208501945060208101905062000659565b86831015620006a057848901516200069c601f89168262000590565b8355505b6001600288020188555050505b505050505050565b600082825260208201905092915050565b7f4f776e61626c653a206e6577206f776e657220697320746865207a65726f206160008201527f6464726573730000000000000000000000000000000000000000000000000000602082015250565b600062000724602683620006b5565b91506200073182620006c6565b604082019050919050565b60006020820190508181036000830152620007578162000715565b9050919050565b7f4f776e61626c653a2063616c6c6572206973206e6f7420746865206f776e6572600082015250565b600062000796602083620006b5565b9150620007a3826200075e565b602082019050919050565b60006020820190508181036000830152620007c98162000787565b9050919050565b61373b80620007e06000396000f3fe60806040526004361061019c5760003560e01c8063715018a6116100ec578063a22cb4651161008a578063d5abeb0111610064578063d5abeb0114610593578063e985e9c5146105be578063f0293fd3146105fb578063f2fde38b146106385761019c565b8063a22cb46514610504578063b88d4fde1461052d578063c87b56dd146105565761019c565b80638da5cb5b116100c65780638da5cb5b1461046957806395652cfa1461049457806395d89b41146104bd578063a0712d68146104e85761019c565b8063715018a6146103fe578063818668d71461041557806385d178f41461043e5761019c565b806323b872dd11610159578063453c231011610133578063453c23101461032e5780636352211e146103595780636817c76c1461039657806370a08231146103c15761019c565b806323b872dd146102c55780633ccfd60b146102ee57806342842e0e146103055761019c565b80630116bc2d146101a157806301ffc9a7146101cc57806306fdde0314610209578063081812fc14610234578063095ea7b31461027157806318160ddd1461029a575b600080fd5b3480156101ad57600080fd5b506101b6610661565b6040516101c39190612090565b60405180910390f35b3480156101d857600080fd5b506101f360048036038101906101ee9190612117565b610674565b6040516102009190612090565b60405180910390f35b34801561021557600080fd5b5061021e610756565b60405161022b91906121d4565b60405180910390f35b34801561024057600080fd5b5061025b6004803603810190610256919061222c565b6107e8565b604051610268919061229a565b60405180910390f35b34801561027d57600080fd5b50610298600480360381019061029391906122e1565b61082e565b005b3480156102a657600080fd5b506102af610945565b6040516102bc9190612330565b60405180910390f35b3480156102d157600080fd5b506102ec60048036038101906102e7919061234b565b61094b565b005b3480156102fa57600080fd5b506103036109ab565b005b34801561031157600080fd5b5061032c6004803603810190610327919061234b565b610a84565b005b34801561033a57600080fd5b50610343610aa4565b6040516103509190612330565b60405180910390f35b34801561036557600080fd5b50610380600480360381019061037b919061222c565b610aaa565b60405161038d919061229a565b60405180910390f35b3480156103a257600080fd5b506103ab610b30565b6040516103b89190612330565b60405180910390f35b3480156103cd57600080fd5b506103e860048036038101906103e3919061239e565b610b36565b6040516103f59190612330565b60405180910390f35b34801561040a57600080fd5b50610413610bed565b005b34801561042157600080fd5b5061043c600480360381019061043791906123f7565b610c01565b005b34801561044a57600080fd5b50610453610c26565b6040516104609190612445565b60405180910390f35b34801561047557600080fd5b5061047e610c4c565b60405161048b919061229a565b60405180910390f35b3480156104a057600080fd5b506104bb60048036038101906104b691906124c5565b610c76565b005b3480156104c957600080fd5b506104d2610c94565b6040516104df91906121d4565b60405180910390f35b61050260048036038101906104fd919061222c565b610d26565b005b34801561051057600080fd5b5061052b60048036038101906105269190612512565b610f51565b005b34801561053957600080fd5b50610554600480360381019061054f9190612682565b610f67565b005b34801561056257600080fd5b5061057d6004803603810190610578919061222c565b610fc9565b60405161058a91906121d4565b60405180910390f35b34801561059f57600080fd5b506105a8611045565b6040516105b59190612330565b60405180910390f35b3480156105ca57600080fd5b506105e560048036038101906105e09190612705565b61104b565b6040516105f29190612090565b60405180910390f35b34801561060757600080fd5b50610622600480360381019061061d919061239e565b6110df565b60405161062f9190612330565b60405180910390f35b34801561064457600080fd5b5061065f600480360381019061065a919061239e565b6110f7565b005b600b60009054906101000a900460ff1681565b60007f80ac58cd000000000000000000000000000000000000000000000000000000007bffffffffffffffffffffffffffffffffffffffffffffffffffffffff1916827bffffffffffffffffffffffffffffffffffffffffffffffffffffffff1916148061073f57507f5b5e139f000000000000000000000000000000000000000000000000000000007bffffffffffffffffffffffffffffffffffffffffffffffffffffffff1916827bffffffffffffffffffffffffffffffffffffffffffffffffffffffff1916145b8061074f575061074e8261117a565b5b9050919050565b60606000805461076590612774565b80601f016020809104026020016040519081016040528092919081815260200182805461079190612774565b80156107de5780601f106107b3576101008083540402835291602001916107de565b820191906000526020600020905b8154815290600101906020018083116107c157829003601f168201915b5050505050905090565b60006107f3826111e4565b6004600083815260200190815260200160002060009054906101000a900473ffffffffffffffffffffffffffffffffffffffff169050919050565b600061083982610aaa565b90508073ffffffffffffffffffffffffffffffffffffffff168373ffffffffffffffffffffffffffffffffffffffff16036108a9576040517f08c379a00000000000000000000000000000000000000000000000000000000081526004016108a090612817565b60405180910390fd5b8073ffffffffffffffffffffffffffffffffffffffff166108c861122f565b73ffffffffffffffffffffffffffffffffffffffff1614806108f757506108f6816108f161122f565b61104b565b5b610936576040517f08c379a000000000000000000000000000000000000000000000000000000000815260040161092d906128a9565b60405180910390fd5b6109408383611237565b505050565b60085481565b61095c61095661122f565b826112f0565b61099b576040517f08c379a00000000000000000000000000000000000000000000000000000000081526004016109929061293b565b60405180910390fd5b6109a6838383611385565b505050565b6109b361167e565b6000600d60009054906101000a900473ffffffffffffffffffffffffffffffffffffffff1673ffffffffffffffffffffffffffffffffffffffff16476040516109fb9061298c565b60006040518083038185875af1925050503d8060008114610a38576040519150601f19603f3d011682016040523d82523d6000602084013e610a3d565b606091505b5050905080610a81576040517f08c379a0000000000000000000000000000000000000000000000000000000008152600401610a78906129ed565b60405180910390fd5b50565b610a9f83838360405180602001604052806000815250610f67565b505050565b600a5481565b600080610ab6836116fc565b9050600073ffffffffffffffffffffffffffffffffffffffff168173ffffffffffffffffffffffffffffffffffffffff1603610b27576040517f08c379a0000000000000000000000000000000000000000000000000000000008152600401610b1e90612a59565b60405180910390fd5b80915050919050565b60075481565b60008073ffffffffffffffffffffffffffffffffffffffff168273ffffffffffffffffffffffffffffffffffffffff1603610ba6576040517f08c379a0000000000000000000000000000000000000000000000000000000008152600401610b9d90612aeb565b60405180910390fd5b600360008373ffffffffffffffffffffffffffffffffffffffff1673ffffffffffffffffffffffffffffffffffffffff168152602001908152602001600020549050919050565b610bf561167e565b610bff6000611739565b565b610c0961167e565b80600b60006101000a81548160ff02191690831515021790555050565b600d60009054906101000a900473ffffffffffffffffffffffffffffffffffffffff1681565b6000600660009054906101000a900473ffffffffffffffffffffffffffffffffffffffff16905090565b610c7e61167e565b8181600c9182610c8f929190612cc2565b505050565b606060018054610ca390612774565b80601f0160208091040260200160405190810160405280929190818152602001828054610ccf90612774565b8015610d1c5780601f10610cf157610100808354040283529160200191610d1c565b820191906000526020600020905b815481529060010190602001808311610cff57829003601f168201915b5050505050905090565b600b60009054906101000a900460ff16610d75576040517f08c379a0000000000000000000000000000000000000000000000000000000008152600401610d6c90612dde565b60405180910390fd5b60075481610d839190612e2d565b3414610dc4576040517f08c379a0000000000000000000000000000000000000000000000000000000008152600401610dbb90612ee1565b60405180910390fd5b60095481600854610dd59190612f01565b10610e15576040517f08c379a0000000000000000000000000000000000000000000000000000000008152600401610e0c90612f81565b60405180910390fd5b600a5481600e60003373ffffffffffffffffffffffffffffffffffffffff1673ffffffffffffffffffffffffffffffffffffffff16815260200190815260200160002054610e639190612f01565b1115610ea4576040517f08c379a0000000000000000000000000000000000000000000000000000000008152600401610e9b90612fed565b60405180910390fd5b60005b81811015610f4d5760006001600854610ec09190612f01565b905060086000815480929190610ed59061300d565b9190505550610ee433826117ff565b600e60003373ffffffffffffffffffffffffffffffffffffffff1673ffffffffffffffffffffffffffffffffffffffff1681526020019081526020016000206000815480929190610f349061300d565b9190505550508080610f459061300d565b915050610ea7565b5050565b610f63610f5c61122f565b838361181d565b5050565b610f78610f7261122f565b836112f0565b610fb7576040517f08c379a0000000000000000000000000000000000000000000000000000000008152600401610fae9061293b565b60405180910390fd5b610fc384848484611989565b50505050565b6060610fd4826119e5565b611013576040517f08c379a000000000000000000000000000000000000000000000000000000000815260040161100a906130a1565b60405180910390fd5b600c61101e83611a26565b60405160200161102f9291906131cc565b6040516020818303038152906040529050919050565b60095481565b6000600560008473ffffffffffffffffffffffffffffffffffffffff1673ffffffffffffffffffffffffffffffffffffffff16815260200190815260200160002060008373ffffffffffffffffffffffffffffffffffffffff1673ffffffffffffffffffffffffffffffffffffffff16815260200190815260200160002060009054906101000a900460ff16905092915050565b600e6020528060005260406000206000915090505481565b6110ff61167e565b600073ffffffffffffffffffffffffffffffffffffffff168173ffffffffffffffffffffffffffffffffffffffff160361116e576040517f08c379a00000000000000000000000000000000000000000000000000000000081526004016111659061326d565b60405180910390fd5b61117781611739565b50565b60007f01ffc9a7000000000000000000000000000000000000000000000000000000007bffffffffffffffffffffffffffffffffffffffffffffffffffffffff1916827bffffffffffffffffffffffffffffffffffffffffffffffffffffffff1916149050919050565b6111ed816119e5565b61122c576040517f08c379a000000000000000000000000000000000000000000000000000000000815260040161122390612a59565b60405180910390fd5b50565b600033905090565b816004600083815260200190815260200160002060006101000a81548173ffffffffffffffffffffffffffffffffffffffff021916908373ffffffffffffffffffffffffffffffffffffffff160217905550808273ffffffffffffffffffffffffffffffffffffffff166112aa83610aaa565b73ffffffffffffffffffffffffffffffffffffffff167f8c5be1e5ebec7d5bd14f71427d1e84f3dd0314c0f7b2291e5b200ac8c7c3b92560405160405180910390a45050565b6000806112fc83610aaa565b90508073ffffffffffffffffffffffffffffffffffffffff168473ffffffffffffffffffffffffffffffffffffffff16148061133e575061133d818561104b565b5b8061137c57508373ffffffffffffffffffffffffffffffffffffffff16611364846107e8565b73ffffffffffffffffffffffffffffffffffffffff16145b91505092915050565b8273ffffffffffffffffffffffffffffffffffffffff166113a582610aaa565b73ffffffffffffffffffffffffffffffffffffffff16146113fb576040517f08c379a00000000000000000000000000000000000000000000000000000000081526004016113f2906132ff565b60405180910390fd5b600073ffffffffffffffffffffffffffffffffffffffff168273ffffffffffffffffffffffffffffffffffffffff160361146a576040517f08c379a000000000000000000000000000000000000000000000000000000000815260040161146190613391565b60405180910390fd5b6114778383836001611af4565b8273ffffffffffffffffffffffffffffffffffffffff1661149782610aaa565b73ffffffffffffffffffffffffffffffffffffffff16146114ed576040517f08c379a00000000000000000000000000000000000000000000000000000000081526004016114e4906132ff565b60405180910390fd5b6004600082815260200190815260200160002060006101000a81549073ffffffffffffffffffffffffffffffffffffffff02191690556001600360008573ffffffffffffffffffffffffffffffffffffffff1673ffffffffffffffffffffffffffffffffffffffff168152602001908152602001600020600082825403925050819055506001600360008473ffffffffffffffffffffffffffffffffffffffff1673ffffffffffffffffffffffffffffffffffffffff16815260200190815260200160002060008282540192505081905550816002600083815260200190815260200160002060006101000a81548173ffffffffffffffffffffffffffffffffffffffff021916908373ffffffffffffffffffffffffffffffffffffffff160217905550808273ffffffffffffffffffffffffffffffffffffffff168473ffffffffffffffffffffffffffffffffffffffff167fddf252ad1be2c89b69c2b068fc378daa952ba7f163c4a11628f55a4df523b3ef60405160405180910390a46116798383836001611afa565b505050565b61168661122f565b73ffffffffffffffffffffffffffffffffffffffff166116a4610c4c565b73ffffffffffffffffffffffffffffffffffffffff16146116fa576040517f08c379a00000000000000000000000000000000000000000000000000000000081526004016116f1906133fd565b60405180910390fd5b565b60006002600083815260200190815260200160002060009054906101000a900473ffffffffffffffffffffffffffffffffffffffff169050919050565b6000600660009054906101000a900473ffffffffffffffffffffffffffffffffffffffff16905081600660006101000a81548173ffffffffffffffffffffffffffffffffffffffff021916908373ffffffffffffffffffffffffffffffffffffffff1602179055508173ffffffffffffffffffffffffffffffffffffffff168173ffffffffffffffffffffffffffffffffffffffff167f8be0079c531659141344cd1fd0a4f28419497f9722a3daafe3b4186f6b6457e060405160405180910390a35050565b611819828260405180602001604052806000815250611b00565b5050565b8173ffffffffffffffffffffffffffffffffffffffff168373ffffffffffffffffffffffffffffffffffffffff160361188b576040517f08c379a000000000000000000000000000000000000000000000000000000000815260040161188290613469565b60405180910390fd5b80600560008573ffffffffffffffffffffffffffffffffffffffff1673ffffffffffffffffffffffffffffffffffffffff16815260200190815260200160002060008473ffffffffffffffffffffffffffffffffffffffff1673ffffffffffffffffffffffffffffffffffffffff16815260200190815260200160002060006101000a81548160ff0219169083151502179055508173ffffffffffffffffffffffffffffffffffffffff168373ffffffffffffffffffffffffffffffffffffffff167f17307eab39ab6107e8899845ad3d59bd9653f200f220920489ca2b5937696c318360405161197c9190612090565b60405180910390a3505050565b611994848484611385565b6119a084848484611b5b565b6119df576040517f08c379a00000000000000000000000000000000000000000000000000000000081526004016119d6906134fb565b60405180910390fd5b50505050565b60008073ffffffffffffffffffffffffffffffffffffffff16611a07836116fc565b73ffffffffffffffffffffffffffffffffffffffff1614159050919050565b606060006001611a3584611ce2565b01905060008167ffffffffffffffff811115611a5457611a53612557565b5b6040519080825280601f01601f191660200182016040528015611a865781602001600182028036833780820191505090505b509050600082602001820190505b600115611ae9578080600190039150507f3031323334353637383961626364656600000000000000000000000000000000600a86061a8153600a8581611add57611adc61351b565b5b04945060008503611a94575b819350505050919050565b50505050565b50505050565b611b0a8383611e35565b611b176000848484611b5b565b611b56576040517f08c379a0000000000000000000000000000000000000000000000000000000008152600401611b4d906134fb565b60405180910390fd5b505050565b6000611b7c8473ffffffffffffffffffffffffffffffffffffffff16612052565b15611cd5578373ffffffffffffffffffffffffffffffffffffffff1663150b7a02611ba561122f565b8786866040518563ffffffff1660e01b8152600401611bc7949392919061359f565b6020604051808303816000875af1925050508015611c0357506040513d601f19601f82011682018060405250810190611c009190613600565b60015b611c85573d8060008114611c33576040519150601f19603f3d011682016040523d82523d6000602084013e611c38565b606091505b506000815103611c7d576040517f08c379a0000000000000000000000000000000000000000000000000000000008152600401611c74906134fb565b60405180910390fd5b805181602001fd5b63150b7a0260e01b7bffffffffffffffffffffffffffffffffffffffffffffffffffffffff1916817bffffffffffffffffffffffffffffffffffffffffffffffffffffffff191614915050611cda565b600190505b949350505050565b600080600090507a184f03e93ff9f4daa797ed6e38ed64bf6a1f0100000000000000008310611d40577a184f03e93ff9f4daa797ed6e38ed64bf6a1f0100000000000000008381611d3657611d3561351b565b5b0492506040810190505b6d04ee2d6d415b85acef81000000008310611d7d576d04ee2d6d415b85acef81000000008381611d7357611d7261351b565b5b0492506020810190505b662386f26fc100008310611dac57662386f26fc100008381611da257611da161351b565b5b0492506010810190505b6305f5e1008310611dd5576305f5e1008381611dcb57611dca61351b565b5b0492506008810190505b6127108310611dfa576127108381611df057611def61351b565b5b0492506004810190505b60648310611e1d5760648381611e1357611e1261351b565b5b0492506002810190505b600a8310611e2c576001810190505b80915050919050565b600073ffffffffffffffffffffffffffffffffffffffff168273ffffffffffffffffffffffffffffffffffffffff1603611ea4576040517f08c379a0000000000000000000000000000000000000000000000000000000008152600401611e9b90613679565b60405180910390fd5b611ead816119e5565b15611eed576040517f08c379a0000000000000000000000000000000000000000000000000000000008152600401611ee4906136e5565b60405180910390fd5b611efb600083836001611af4565b611f04816119e5565b15611f44576040517f08c379a0000000000000000000000000000000000000000000000000000000008152600401611f3b906136e5565b60405180910390fd5b6001600360008473ffffffffffffffffffffffffffffffffffffffff1673ffffffffffffffffffffffffffffffffffffffff16815260200190815260200160002060008282540192505081905550816002600083815260200190815260200160002060006101000a81548173ffffffffffffffffffffffffffffffffffffffff021916908373ffffffffffffffffffffffffffffffffffffffff160217905550808273ffffffffffffffffffffffffffffffffffffffff16600073ffffffffffffffffffffffffffffffffffffffff167fddf252ad1be2c89b69c2b068fc378daa952ba7f163c4a11628f55a4df523b3ef60405160405180910390a461204e600083836001611afa565b5050565b6000808273ffffffffffffffffffffffffffffffffffffffff163b119050919050565b60008115159050919050565b61208a81612075565b82525050565b60006020820190506120a56000830184612081565b92915050565b6000604051905090565b600080fd5b600080fd5b60007fffffffff0000000000000000000000000000000000000000000000000000000082169050919050565b6120f4816120bf565b81146120ff57600080fd5b50565b600081359050612111816120eb565b92915050565b60006020828403121561212d5761212c6120b5565b5b600061213b84828501612102565b91505092915050565b600081519050919050565b600082825260208201905092915050565b60005b8381101561217e578082015181840152602081019050612163565b60008484015250505050565b6000601f19601f8301169050919050565b60006121a682612144565b6121b0818561214f565b93506121c0818560208601612160565b6121c98161218a565b840191505092915050565b600060208201905081810360008301526121ee818461219b565b905092915050565b6000819050919050565b612209816121f6565b811461221457600080fd5b50565b60008135905061222681612200565b92915050565b600060208284031215612242576122416120b5565b5b600061225084828501612217565b91505092915050565b600073ffffffffffffffffffffffffffffffffffffffff82169050919050565b600061228482612259565b9050919050565b61229481612279565b82525050565b60006020820190506122af600083018461228b565b92915050565b6122be81612279565b81146122c957600080fd5b50565b6000813590506122db816122b5565b92915050565b600080604083850312156122f8576122f76120b5565b5b6000612306858286016122cc565b925050602061231785828601612217565b9150509250929050565b61232a816121f6565b82525050565b60006020820190506123456000830184612321565b92915050565b600080600060608486031215612364576123636120b5565b5b6000612372868287016122cc565b9350506020612383868287016122cc565b925050604061239486828701612217565b9150509250925092565b6000602082840312156123b4576123b36120b5565b5b60006123c2848285016122cc565b91505092915050565b6123d481612075565b81146123df57600080fd5b50565b6000813590506123f1816123cb565b92915050565b60006020828403121561240d5761240c6120b5565b5b600061241b848285016123e2565b91505092915050565b600061242f82612259565b9050919050565b61243f81612424565b82525050565b600060208201905061245a6000830184612436565b92915050565b600080fd5b600080fd5b600080fd5b60008083601f84011261248557612484612460565b5b8235905067ffffffffffffffff8111156124a2576124a1612465565b5b6020830191508360018202830111156124be576124bd61246a565b5b9250929050565b600080602083850312156124dc576124db6120b5565b5b600083013567ffffffffffffffff8111156124fa576124f96120ba565b5b6125068582860161246f565b92509250509250929050565b60008060408385031215612529576125286120b5565b5b6000612537858286016122cc565b9250506020612548858286016123e2565b9150509250929050565b600080fd5b7f4e487b7100000000000000000000000000000000000000000000000000000000600052604160045260246000fd5b61258f8261218a565b810181811067ffffffffffffffff821117156125ae576125ad612557565b5b80604052505050565b60006125c16120ab565b90506125cd8282612586565b919050565b600067ffffffffffffffff8211156125ed576125ec612557565b5b6125f68261218a565b9050602081019050919050565b82818337600083830152505050565b6000612625612620846125d2565b6125b7565b90508281526020810184848401111561264157612640612552565b5b61264c848285612603565b509392505050565b600082601f83011261266957612668612460565b5b8135612679848260208601612612565b91505092915050565b6000806000806080858703121561269c5761269b6120b5565b5b60006126aa878288016122cc565b94505060206126bb878288016122cc565b93505060406126cc87828801612217565b925050606085013567ffffffffffffffff8111156126ed576126ec6120ba565b5b6126f987828801612654565b91505092959194509250565b6000806040838503121561271c5761271b6120b5565b5b600061272a858286016122cc565b925050602061273b858286016122cc565b9150509250929050565b7f4e487b7100000000000000000000000000000000000000000000000000000000600052602260045260246000fd5b6000600282049050600182168061278c57607f821691505b60208210810361279f5761279e612745565b5b50919050565b7f4552433732313a20617070726f76616c20746f2063757272656e74206f776e6560008201527f7200000000000000000000000000000000000000000000000000000000000000602082015250565b600061280160218361214f565b915061280c826127a5565b604082019050919050565b60006020820190508181036000830152612830816127f4565b9050919050565b7f4552433732313a20617070726f76652063616c6c6572206973206e6f7420746f60008201527f6b656e206f776e6572206f7220617070726f76656420666f7220616c6c000000602082015250565b6000612893603d8361214f565b915061289e82612837565b604082019050919050565b600060208201905081810360008301526128c281612886565b9050919050565b7f4552433732313a2063616c6c6572206973206e6f7420746f6b656e206f776e6560008201527f72206f7220617070726f76656400000000000000000000000000000000000000602082015250565b6000612925602d8361214f565b9150612930826128c9565b604082019050919050565b6000602082019050818103600083015261295481612918565b9050919050565b600081905092915050565b50565b600061297660008361295b565b915061298182612966565b600082019050919050565b600061299782612969565b9150819050919050565b7f5769746864726177206661696c65640000000000000000000000000000000000600082015250565b60006129d7600f8361214f565b91506129e2826129a1565b602082019050919050565b60006020820190508181036000830152612a06816129ca565b9050919050565b7f4552433732313a20696e76616c696420746f6b656e2049440000000000000000600082015250565b6000612a4360188361214f565b9150612a4e82612a0d565b602082019050919050565b60006020820190508181036000830152612a7281612a36565b9050919050565b7f4552433732313a2061646472657373207a65726f206973206e6f74206120766160008201527f6c6964206f776e65720000000000000000000000000000000000000000000000602082015250565b6000612ad560298361214f565b9150612ae082612a79565b604082019050919050565b60006020820190508181036000830152612b0481612ac8565b9050919050565b600082905092915050565b60008190508160005260206000209050919050565b60006020601f8301049050919050565b600082821b905092915050565b600060088302612b787fffffffffffffffffffffffffffffffffffffffffffffffffffffffffffffffff82612b3b565b612b828683612b3b565b95508019841693508086168417925050509392505050565b6000819050919050565b6000612bbf612bba612bb5846121f6565b612b9a565b6121f6565b9050919050565b6000819050919050565b612bd983612ba4565b612bed612be582612bc6565b848454612b48565b825550505050565b600090565b612c02612bf5565b612c0d818484612bd0565b505050565b5b81811015612c3157612c26600082612bfa565b600181019050612c13565b5050565b601f821115612c7657612c4781612b16565b612c5084612b2b565b81016020851015612c5f578190505b612c73612c6b85612b2b565b830182612c12565b50505b505050565b600082821c905092915050565b6000612c9960001984600802612c7b565b1980831691505092915050565b6000612cb28383612c88565b9150826002028217905092915050565b612ccc8383612b0b565b67ffffffffffffffff811115612ce557612ce4612557565b5b612cef8254612774565b612cfa828285612c35565b6000601f831160018114612d295760008415612d17578287013590505b612d218582612ca6565b865550612d89565b601f198416612d3786612b16565b60005b82811015612d5f57848901358255600182019150602085019450602081019050612d3a565b86831015612d7c5784890135612d78601f891682612c88565b8355505b6001600288020188555050505b50505050505050565b7f6d696e74696e67206e6f7420656e61626c656400000000000000000000000000600082015250565b6000612dc860138361214f565b9150612dd382612d92565b602082019050919050565b60006020820190508181036000830152612df781612dbb565b9050919050565b7f4e487b7100000000000000000000000000000000000000000000000000000000600052601160045260246000fd5b6000612e38826121f6565b9150612e43836121f6565b9250828202612e51816121f6565b91508282048414831517612e6857612e67612dfe565b5b5092915050565b7f57726f6e67206d696e742076616c7565206f7220696e73756666696369656e7460008201527f2066756e647320746f206d696e74000000000000000000000000000000000000602082015250565b6000612ecb602e8361214f565b9150612ed682612e6f565b604082019050919050565b60006020820190508181036000830152612efa81612ebe565b9050919050565b6000612f0c826121f6565b9150612f17836121f6565b9250828201905080821115612f2f57612f2e612dfe565b5b92915050565b7f536f6c64206f7574000000000000000000000000000000000000000000000000600082015250565b6000612f6b60088361214f565b9150612f7682612f35565b602082019050919050565b60006020820190508181036000830152612f9a81612f5e565b9050919050565b7f6578636564646564206d6178207065722077616c6c6574000000000000000000600082015250565b6000612fd760178361214f565b9150612fe282612fa1565b602082019050919050565b6000602082019050818103600083015261300681612fca565b9050919050565b6000613018826121f6565b91507fffffffffffffffffffffffffffffffffffffffffffffffffffffffffffffffff820361304a57613049612dfe565b5b600182019050919050565b7f546f6b656e20646f6573206e6f74206578697374000000000000000000000000600082015250565b600061308b60148361214f565b915061309682613055565b602082019050919050565b600060208201905081810360008301526130ba8161307e565b9050919050565b600081905092915050565b600081546130d981612774565b6130e381866130c1565b945060018216600081146130fe576001811461311357613146565b60ff1983168652811515820286019350613146565b61311c85612b16565b60005b8381101561313e5781548189015260018201915060208101905061311f565b838801955050505b50505092915050565b600061315a82612144565b61316481856130c1565b9350613174818560208601612160565b80840191505092915050565b7f2e6a736f6e000000000000000000000000000000000000000000000000000000600082015250565b60006131b66005836130c1565b91506131c182613180565b600582019050919050565b60006131d882856130cc565b91506131e4828461314f565b91506131ef826131a9565b91508190509392505050565b7f4f776e61626c653a206e6577206f776e657220697320746865207a65726f206160008201527f6464726573730000000000000000000000000000000000000000000000000000602082015250565b600061325760268361214f565b9150613262826131fb565b604082019050919050565b600060208201905081810360008301526132868161324a565b9050919050565b7f4552433732313a207472616e736665722066726f6d20696e636f72726563742060008201527f6f776e6572000000000000000000000000000000000000000000000000000000602082015250565b60006132e960258361214f565b91506132f48261328d565b604082019050919050565b60006020820190508181036000830152613318816132dc565b9050919050565b7f4552433732313a207472616e7366657220746f20746865207a65726f2061646460008201527f7265737300000000000000000000000000000000000000000000000000000000602082015250565b600061337b60248361214f565b91506133868261331f565b604082019050919050565b600060208201905081810360008301526133aa8161336e565b9050919050565b7f4f776e61626c653a2063616c6c6572206973206e6f7420746865206f776e6572600082015250565b60006133e760208361214f565b91506133f2826133b1565b602082019050919050565b60006020820190508181036000830152613416816133da565b9050919050565b7f4552433732313a20617070726f766520746f2063616c6c657200000000000000600082015250565b600061345360198361214f565b915061345e8261341d565b602082019050919050565b6000602082019050818103600083015261348281613446565b9050919050565b7f4552433732313a207472616e7366657220746f206e6f6e20455243373231526560008201527f63656976657220696d706c656d656e7465720000000000000000000000000000602082015250565b60006134e560328361214f565b91506134f082613489565b604082019050919050565b60006020820190508181036000830152613514816134d8565b9050919050565b7f4e487b7100000000000000000000000000000000000000000000000000000000600052601260045260246000fd5b600081519050919050565b600082825260208201905092915050565b60006135718261354a565b61357b8185613555565b935061358b818560208601612160565b6135948161218a565b840191505092915050565b60006080820190506135b4600083018761228b565b6135c1602083018661228b565b6135ce6040830185612321565b81810360608301526135e08184613566565b905095945050505050565b6000815190506135fa816120eb565b92915050565b600060208284031215613616576136156120b5565b5b6000613624848285016135eb565b91505092915050565b7f4552433732313a206d696e7420746f20746865207a65726f2061646472657373600082015250565b600061366360208361214f565b915061366e8261362d565b602082019050919050565b6000602082019050818103600083015261369281613656565b9050919050565b7f4552433732313a20746f6b656e20616c7265616479206d696e74656400000000600082015250565b60006136cf601c8361214f565b91506136da82613699565b602082019050919050565b600060208201905081810360008301526136fe816136c2565b905091905056fea26469706673582212201329a256504fda5dee623bd4b6c4d9e533419ed3a89b5f9577350e3a54a3e8fb64736f6c63430008130033",
  "linkReferences": {},
  "deployedLinkReferences": {}
}